:020000040000FA
:100000000C945E000C9486000C9486000C94860080
:100010000C9486000C9486000C9486000C94860048
:100020000C9486000C9486000C9486000C94860038
:100030000C9486000C9486000C9486000C94860028
:100040000C9407030C9486000C9477030C945103D2
:100050000C9486000C9486000C9486000C94860008
:100060000C9486000C948600000000080002010039
:100070000003040700000000000000000000000072
:10008000250028002B0000000000240027002A0083
:10009000040404040404040402020202020203032E
:1000A0000303030301020408102040800102040836
:1000B0001020010204081020A903AB0711241FBE61
:1000C000CFEFD8E0DEBFCDBF11E0A0E0B1E0E0EBC4
:1000D000F7E102C005900D92A433B107D9F721E0F2
:1000E000A4E3B1E001C01D92AD3FB207E1F710E01B
:1000F000CDE5D0E004C02197FE010E94A00ACC35D6
:10010000D107C9F70E94F4030C94CB0B0C940000A8
:1001100090E0FC01EC55FF4F249180579F4FFC016C
:100120008491882399F090E0880F991FFC01EA5789
:10013000FF4FA591B491FC01E458FF4F8591949134
:100140008FB7F894EC91E22BEC938FBF089590E079
:10015000FC01E859FF4F2491FC01EC55FF4F34910D
:10016000FC01E057FF4FE491EE23C9F0222339F060
:10017000233001F1A8F4213019F1223029F1F0E007
:10018000EE0FFF1FE458FF4FA591B4918FB7F8947D
:10019000EC91611126C030953E233C938FBF0895AA
:1001A0002730A9F02830C9F0243049F78091800029
:1001B0008F7D03C0809180008F7780938000DFCF98
:1001C00084B58F7784BDDBCF84B58F7DFBCF8091E5
:1001D000B0008F778093B000D2CF8091B0008F7D38
:1001E000F9CF3E2BDACF3FB7F8948091420190913E
:1001F0004301A0914401B091450126B5A89B05C0DB
:100200002F3F19F00196A11DB11D3FBFBA2FA92F95
:10021000982F8827BC01CD01620F711D811D911D92
:1002200042E0660F771F881F991F4A95D1F70895FE
:10023000AF92BF92CF92DF92EF92FF920F931F93F4
:10024000CF93DF936C017B018B01040F151FEB0132
:100250005E01AE18BF08C017D10759F06991D601E9
:10026000ED91FC910190F081E02DC6010995892B5B
:1002700079F7C501DF91CF911F910F91FF90EF901A
:10028000DF90CF90BF90AF900895FC01538D448DC7
:10029000252F30E0842F90E0821B930B541710F031
:1002A000CF96089501970895FC01918D828D98173E
:1002B00061F0A28DAE0FBF2FB11D5D968C91928D16
:1002C0009F5F9F73928F90E008958FEF9FEF089547
:1002D000FC01918D828D981731F0828DE80FF11D10
:1002E000858D90E008958FEF9FEF0895FC01918D2B
:1002F000228D892F90E0805C9F4F821B91098F7324
:100300009927089586E491E00E94760121E0892BE7
:1003100009F420E0822F089580E090E0892B29F0F5
:100320000E94820181110C9400000895FC01A48DAB
:10033000A80FB92FB11DA35ABF4F2C91848D90E007
:1003400001968F739927848FA689B7892C93A089EA
:10035000B1898C91837080648C93938D848D981374
:1003600006C00288F389E02D80818F7D8083089507
:10037000EF92FF920F931F93CF93DF93EC0181E0F5
:10038000888F9B8D8C8D98131AC0E889F98980819C
:1003900085FF15C09FB7F894EE89FF896083E889CF
:1003A000F98980818370806480839FBF81E090E0C1
:1003B000DF91CF911F910F91FF90EF900895F62E4E
:1003C0000B8D10E00F5F1F4F0F731127E02E8C8DE8
:1003D0008E110CC00FB607FCFACFE889F98980812D
:1003E00085FFF5CFCE010E949601F1CFEB8DEC0F8A
:1003F000FD2FF11DE35AFF4FF0829FB7F8940B8F4A
:10040000EA89FB8980818062CFCFCF93DF93EC01B3
:10041000888D8823B9F0AA89BB89E889F9898C91EC
:1004200085FD03C0808186FD0DC00FB607FCF7CFA8
:100430008C9185FFF2CF808185FFEDCFCE010E94A8
:100440009601E9CFDF91CF910895CF92DF92EF929D
:10045000FF921092370110923601109235011092DE
:10046000340180913401909135018897C0F58091D5
:10047000000120E4829FC001112480937C008091C0
:100480007A00806480937A0080917A0086FDFCCFA8
:100490002091780030917900809136019091370158
:1004A000820F931F9093370180933601809134011E
:1004B00090913501019690933501809334010E940B
:1004C000F3006B017C010E94F3006C197D098E0919
:1004D0009F09683E73408105910518F6F4CF80911D
:1004E00036019091370168E270E00E94560ACB0114
:1004F000FF90EF90DF90CF900895FC0101900020D5
:10050000E9F73197AF01481B590BBC0186E491E034
:100510000C9418018F929F92AF92BF920F931F93EA
:10052000CF93DF93CDB7DEB7A1970FB6F894DEBFB8
:100530000FBECDBF19A2423008F44AE08E010F5D14
:100540001F4F842E912CB12CA12CA50194010E9447
:100550007E0AE62FB901CA01EA30F4F4E05DD80161
:10056000EE938D01232B242B252B79F790E080E04F
:10057000109719F0CD010E947D02A1960FB6F89454
:10058000DEBF0FBECDBFDF91CF911F910F91BF9006
:10059000AF909F908F900895E95CE1CFCF92DF926A
:1005A000EF92FF92CF93DF936B017C016DE286E4C3
:1005B00091E00E94B801EC0166277727CB016C1906
:1005C0007D098E099F094AE00E948A028C0F9D1FB7
:1005D000DF91CF91FF90EF90DF90CF900895CF9370
:1005E000DF93BC01990F880B990B97FF0CC00E94F9
:1005F000CE02EC0189E191E00E947D028C0F9D1FEB
:10060000DF91CF9108954AE00E948A02F2CF1F92B3
:100610000F920FB60F9211242F933F938F939F93B6
:10062000AF93BF9380913E0190913F01A091400113
:10063000B091410130913D0123E0230F2D3758F552
:100640000196A11DB11D20933D0180933E01909321
:100650003F01A0934001B0934101809142019091EC
:100660004301A0914401B09145010196A11DB11D26
:100670008093420190934301A0934401B0934501BC
:10068000BF91AF919F918F913F912F910F900FBE8E
:100690000F901F90189526E8230F0296A11DB11DFB
:1006A000D2CF1F920F920FB60F9211242F933F9328
:1006B0004F935F936F937F938F939F93AF93BF936A
:1006C000EF93FF9386E491E00E949601FF91EF91F2
:1006D000BF91AF919F918F917F916F915F914F915A
:1006E0003F912F910F900FBE0F901F9018951F9262
:1006F0000F920FB60F9211242F938F939F93EF9326
:10070000FF93E0915601F09157018081E0915C01E7
:10071000F0915D0182FD1BC0908180915F018F5F30
:100720008F7320916001821741F0E0915F01F0E04A
:10073000EA5BFE4F958F80935F01FF91EF919F9150
:100740008F912F910F900FBE0F901F901895808161
:10075000F4CFE6E4F1E01382128288EE93E0A0E0A9
:10076000B0E084839583A683B7838BE091E0918387
:10077000808385EC90E09587848784EC90E0978770
:10078000868780EC90E0918B808B81EC90E0938B5E
:10079000828B82EC90E0958B848B86EC90E0978B3B
:1007A000868B118E128E138E148EE3EEF1E0118281
:1007B000108280E290E09383828382E090E09583D0
:1007C000848380E090E0A0E0BFE380879187A287E8
:1007D000B3878AE097EDA3E2BCE384879587A68779
:1007E000B787178216820895CF93DF93CDB7DEB710
:1007F00060970FB6F894DEBF0FBECDBF789484B576
:10080000826084BD84B5816084BD85B5826085BD0C
:1008100085B5816085BD80916E00816080936E009A
:10082000109281008091810082608093810080918C
:10083000810081608093810080918000816080933D
:1008400080008091B10084608093B1008091B000FD
:1008500081608093B00080917A00846080937A00F8
:1008600080917A00826080937A0080917A00816022
:1008700080937A0080917A00806880937A00109249
:10088000C100E0915601F091570182E08083E09130
:100890005201F09153011082E0915401F091550101
:1008A0008FEC808310925E01E0915A01F0915B0120
:1008B00086E08083E0915801F09159018081806148
:1008C0008083E0915801F091590180818860808394
:1008D000E0915801F0915901808180688083E09116
:1008E0005801F091590180818F7D80831092000121
:1008F00087E00E94880060E087E00E94A70088E00F
:100900000E94880061E088E00E94A70086E090E0F5
:100910009093E6018093E50183E090E09093E801F5
:100920008093E7018AE999E9A9E1BFE38093EB01AC
:100930009093EC01A093ED01B093EE018CE190E077
:100940000E94A60A8B8399838093F3019093F4010C
:100950008CE190E00E94A60A8C018093F50110932F
:10096000F6018CE190E00E94A60A8093F701909333
:10097000F801EB81F9819801AC01CF014896119201
:10098000119211921192D9011D921D921D921D92E8
:100990009D01DA011D921D921D921D92AD01E81775
:1009A000F90769F761E087E00E94A7000E9425022D
:1009B000873E91402CF40E9425020E94EF02F6CF60
:1009C0002FB7F89480913E0190913F01A091400192
:1009D000B09141012FBF8093390190933A01A093C8
:1009E0003B01B0933C010E942502823593400CF0FC
:1009F00083C28091380181117FC20E942502BC010F
:100A0000990F880B990B0E94D9086B017C011092F9
:100A1000EA011092E9012091E3013091E401209074
:100A2000E5013090E601A9014F5F5F4F5A87498782
:100A3000CA01B1010E946A0A9A8389838091F501F3
:100A40009091F6019C878B87C901B1010E946A0AC7
:100A5000DC01AA0FBB1FAA0FBB1FB88BAF87EB85AA
:100A6000FC85EA0FFB1F2081318142815381C70140
:100A7000B6010E94BD074B015C01E091E701F091D6
:100A8000E801FE87ED872091F7013091F8013C8362
:100A90002B83F9014F855889E40FF51F4080518061
:100AA00062807380AD85BE85BD01BB0F880B990B3D
:100AB0000E94D908A30192010E948E099B01AC01FA
:100AC000C501B4010E9489090091F3011091F4015C
:100AD000E981FA81EE0FFF1FEE0FFF1FFE83ED830A
:100AE00018160CF070C08090EB019090EC01A09073
:100AF000ED01B090EE01E00FF11FF887EF832F8535
:100B00003889200F311F3E872D87A501940160E0B1
:100B100070E080E89FE30E94BD07AD85BE852D9102
:100B20003D914D915C910E948E092B013C01A501E4
:100B30009401C701B6010E948E099B01AC01C3015B
:100B4000B2010E94BE07EF81F885608371838283C2
:100B5000938321E030E03093EA012093E901EB84B4
:100B6000FC84ED81FE81EE0EFF1E0091F3011091D9
:100B7000F40118861F82412C512C32012F813885B7
:100B8000221533050CF079C089819A81820F931F59
:100B9000B1010E946A0AFC01EE0FFF1FEE0FFF1F5A
:100BA000E00FF11F2081318142815381C301B201E5
:100BB0000E94BE072B013C014F8158854F5F5F4F5C
:100BC00058874F83DBCF4D815E81400F511F58877F
:100BD0004F836D857E85719561957109072E000C97
:100BE000880B990B0E94D908A30192010E948E09DB
:100BF0009B01AC01C501B4010E942A0887FF35C0E2
:100C00008090EB019090EC01A090ED01B090EE018E
:100C10008F859889800F911F9E878D87A5019401EC
:100C200060E070E080E89FE30E94BD07AD85BE856F
:100C30002D913D914D915C910E948E092B013C01BB
:100C4000A5019401C701B6010E948E099B01AC0168
:100C5000C301B2010E94BE07EF81F88560837183F2
:100C6000828393832FEF3FEF76CFAF81B885CD920C
:100C7000DD92ED92FC92139772CFB101032C000C20
:100C8000880B990B0E94D9084B015C01AC019B01B8
:100C9000C301B2010E942F08D7016D937D938D93FC
:100CA0009C931397EB81FC812D813E81E20FF31F12
:100CB000FC83EB831E821D82C12CD12C76014D81D9
:100CC0005E8142155305F4F489819A81840F951F42
:100CD000B1010E946A0AFC01EE0FFF1FEE0FFF1F19
:100CE000E00FF11F2081318142815381C701B6019C
:100CF0000E94BE076B017C018D819E8101969E83BF
:100D00008D83DDCFA5019401C701B6010E942F0894
:100D10002B013C011E821D82C12CD12C7601AD819C
:100D2000BE81A215B30524F589819A818A0F9B1F84
:100D3000B1010E946A0AFC01EE0FFF1FEE0FFF1FB8
:100D4000E00FF11F60817181828193819B01AC0171
:100D50000E948E099B01AC01C701B6010E94BE072B
:100D60006B017C01ED81FE813196FE83ED83D7CF4F
:100D7000A5019401C701B6010E942F086B017C01F7
:100D8000A3019201C301B2010E948E099B01AC0133
:100D9000C701B6010E94BD074B015C01C090EF0185
:100DA000D090F001E090F101F090F20126013701BE
:100DB00077FA709477F87094A30192010E948909E0
:100DC00018160CF0A2C0A7019601C501B4010E943B
:100DD0002A0887FF9AC020E030E0A901C501B401CC
:100DE0000E942A0887FF02C073016201AB81BC81A7
:100DF000CD92DD92ED92FC921397E985FA85EF3F53
:100E00002FE3F2070CF088C0F093E401E093E301D4
:100E10008091E9019091EA01019709F097C08FB79D
:100E2000F894C0903E01D0903F01E0904001F090D6
:100E300041018FBF0D2C000CEE08FF088091390195
:100E400090913A01A0913B01B0913C01A70196011C
:100E5000281B390B4A0B5B0BCA01B9014AE00E94FF
:100E60008A0289E191E00E947D028091390190918E
:100E70003A01A0913B01B0913C01A7019601281BCA
:100E8000390B4A0B5B0BDA01C901813B9440A10588
:100E9000B10508F44EC081E0809338018CE191E007
:100EA0000E947D0289E191E00E947D020E9425025C
:100EB000BC01990F880B990B0E94D90820E737EEE7
:100EC00041E65EE30E948E0925EC3FE94BEE50E4DB
:100ED0000E94BD070E94A108072E000C880B990BE9
:100EE00097FF23C00E94CE0260E087E00E94A70027
:100EF00060E088E00E94A70060E087E00E94A70011
:100F000060E088E00E94A700FFCFC501B4010E9405
:100F1000010A6B017C016ACF49815A81240E351E7A
:100F20003092E4012092E30173CF4AE00E948A02EA
:100F3000DBCFC0923901D0923A01E0923B01F092AE
:100F40003C018EE291E00E947D024DCD0E9425027F
:100F50000E94EF0248CDCF93DF93C3EED1E08889A2
:100F600099890E94420B8A899B890E94420B8C8935
:100F70009D89DF91CF910C94420B5058BB27AA2733
:100F80000E94D5070C944F090E94410938F00E9435
:100F9000480920F039F49F3F19F426F40C943E09D7
:100FA0000EF4E095E7FB0C943809E92F0E946009E4
:100FB00058F3BA17620773078407950720F079F48E
:100FC000A6F50C9482090EF4E0950B2EBA2FA02DF5
:100FD0000B01B90190010C01CA01A0011124FF27E6
:100FE000591B99F0593F50F4503E68F11A16F040E1
:100FF000A22F232F342F4427585FF3CF46953795E0
:101000002795A795F0405395C9F77EF41F16BA0BA4
:10101000620B730B840BBAF09150A1F0FF0FBB1F52
:10102000661F771F881FC2F70EC0BA0F621F731F9B
:10103000841F48F4879577956795B795F7959E3FF8
:1010400008F0B0CF9395880F08F09927EE0F979589
:10105000879508950E94140908F481E008950E947C
:1010600043080C944F090E94480958F00E94410916
:1010700040F029F45F3F29F00C94380951110C9489
:1010800083090C943E090E94600968F39923B1F327
:10109000552391F3951B550BBB27AA27621773079E
:1010A000840738F09F5F5F4F220F331F441FAA1F32
:1010B000A9F335D00E2E3AF0E0E832D091505040EE
:1010C000E695001CCAF72BD0FE2F29D0660F771F9C
:1010D000881FBB1F261737074807AB07B0E809F082
:1010E000BB0B802DBF01FF2793585F4F3AF09E3F07
:1010F000510578F00C9438090C9483095F3FE4F3B0
:10110000983ED4F3869577956795B795F7959F5F49
:10111000C9F7880F911D9695879597F90895E1E095
:10112000660F771F881FBB1F621773078407BA07F4
:1011300020F0621B730B840BBA0BEE1F88F7E0954F
:1011400008950E94A8086894B1110C948309089529
:101150000E94680988F09F5798F0B92F9927B751D6
:10116000B0F0E1F0660F771F881F991F1AF0BA954B
:10117000C9F714C0B13091F00E948209B1E008951E
:101180000C948209672F782F8827B85F39F0B93F10
:10119000CCF3869577956795B395D9F73EF49095FE
:1011A0008095709561957F4F8F4F9F4F0895E8947C
:1011B00009C097FB3EF490958095709561957F4F9F
:1011C0008F4F9F4F9923A9F0F92F96E9BB2793954D
:1011D000F695879577956795B795F111F8CFFAF45D
:1011E000BB0F11F460FF1BC06F5F7F4F8F4F9F4F8E
:1011F00016C0882311F096E911C0772321F09EE8EC
:10120000872F762F05C0662371F096E8862F70E051
:1012100060E02AF09A95660F771F881FDAF7880F2B
:101220009695879597F90895990F0008550FAA0B81
:10123000E0E8FEEF16161706E807F907C0F01216E9
:101240001306E407F50798F0621B730B840B950BEC
:1012500039F40A2661F0232B242B252B21F4089541
:101260000A2609F4A140A6958FEF811D811D0895DE
:1012700097F99F6780E870E060E008959FEF80EC49
:10128000089500240A9416161706180609060895EC
:1012900000240A9412161306140605060895092E52
:1012A0000394000C11F4882352F0BB0F40F4BF2BC1
:1012B00011F460FF04C06F5F7F4F8F4F9F4F089501
:1012C00057FD9058440F551F59F05F3F71F04795F7
:1012D000880F97FB991F61F09F3F79F087950895DC
:1012E000121613061406551FF2CF4695F1DF08C0FB
:1012F000161617061806991FF1CF86957105610518
:1013000008940895E894BB2766277727CB0197F9BF
:1013100008950E94140908F48FEF08950E94A1090E
:101320000C944F090E94410938F00E94480920F0AE
:10133000952311F00C9438090C943E0911240C9457
:1013400083090E94600970F3959FC1F3950F50E0E7
:10135000551F629FF001729FBB27F00DB11D639F67
:10136000AA27F00DB11DAA1F649F6627B00DA11D0D
:10137000661F829F2227B00DA11D621F739FB00DB3
:10138000A11D621F839FA00D611D221F749F332723
:10139000A00D611D231F849F600D211D822F762FBC
:1013A0006A2F11249F5750409AF0F1F088234AF099
:1013B000EE0FFF1FBB1F661F771F881F9150504005
:1013C000A9F79E3F510580F00C9438090C948309CD
:1013D0005F3FE4F3983ED4F3869577956795B7958C
:1013E000F795E7959F5FC1F7FE2B880F911D9695A6
:1013F000879597F9089519F416F40C943E090C9406
:10140000410A0E946809B8F39923C9F3B6F39F57BC
:10141000550B87FF0E944F0A0024A0E640EA900186
:1014200080585695979528F4805C660F771F881F23
:1014300020F026173707480730F4621B730B840B24
:10144000202931294A2BA695179407942025312568
:101450004A2758F7660F771F881F20F0261737078F
:10146000480730F4620B730B840B200D311D411DB6
:10147000A09581F7B901842F9158880F969587958B
:1014800008959F3F31F0915020F4879577956795A7
:10149000B795880F911D9695879597F90895915066
:1014A0005040660F771F881FD2F70895AA1BBB1BF9
:1014B00051E107C0AA1FBB1FA617B70710F0A61B54
:1014C000B70B881F991F5A95A9F780959095BC0175
:1014D000CD01089597FB072E16F4009407D077FDF1
:1014E00009D00E94560A07FC05D03EF490958195DC
:1014F0009F4F0895709561957F4F0895A1E21A2E30
:10150000AA1BBB1BFD010DC0AA1FBB1FEE1FFF1FA7
:10151000A217B307E407F50720F0A21BB30BE40BF7
:10152000F50B661F771F881F991F1A9469F760953E
:101530007095809590959B01AC01BD01CF010895F8
:10154000EE0FFF1F0590F491E02D09940F931F9368
:10155000CF93DF938230910510F482E090E0E09128
:10156000FB01F091FC0130E020E0B0E0A0E030971A
:1015700099F42115310509F44AC0281B390B243090
:101580003105D8F58A819B816115710589F1FB01CF
:1015900093838283FE0111C04081518102811381B6
:1015A00048175907E0F04817590799F4109761F068
:1015B00012960C93129713961C933296CF01DF91DB
:1015C000CF911F910F9108950093FB011093FC019F
:1015D000F4CF2115310551F04217530738F0A90116
:1015E000DB019A01BD01DF01F801C1CFEF01F9CFA5
:1015F0009093FC018093FB01CDCFFE01E20FF31F1E
:10160000819391932250310939832883D7CF209138
:10161000F9013091FA01232B41F42091030130911B
:1016200004013093FA012093F901209101013091D6
:1016300002012115310541F42DB73EB74091050156
:1016400050910601241B350BE091F901F091FA014C
:10165000E217F307A0F42E1B3F0B2817390778F089
:10166000AC014E5F5F4F2417350748F04E0F5F1FE8
:101670005093FA014093F901819391939FCFF0E049
:10168000E0E09CCFCF93DF930097E9F0FC01329725
:1016900013821282A091FB01B091FC01ED0130E0B8
:1016A00020E01097A1F420813181820F931F2091B7
:1016B000F9013091FA012817390709F061C0F09358
:1016C000FA01E093F901DF91CF910895EA01CE1775
:1016D000DF07E8F54A815B819E0141155105B1F7AD
:1016E000E901FB83EA8349915991C40FD51FEC1797
:1016F000FD0761F4808191810296840F951FE901B5
:1017000099838883828193819B838A83F0E0E0E0E0
:1017100012968D919C9113970097B9F52D913C915C
:101720001197CD010296820F931F2091F9013091FC
:10173000FA012817390739F6309751F51092FC0154
:101740001092FB01B093FA01A093F901BCCFD383AF
:10175000C28340815181840F951FC817D90761F456
:101760004E5F5F4F88819981480F591F5183408395
:101770008A819B81938382832115310509F0B0CF43
:10178000F093FC01E093FB019ECFFD01DC01C0CF93
:1017900013821282D7CF10E0CDE5D0E004C0FE0165
:1017A0000E94A00A2196CE35D107C9F7F894FFCF41
:1017B000010000FD01800000000000B80118014593
:1017C0000105027601540168010D0A004175746F2C
:1017D000204375742D6F66662061743A2000506551
:0417E000616B200019
:107E0000112484B714BE81FFF0D085E080938100F7
:107E100082E08093C00088E18093C10086E0809377
:107E2000C20080E18093C4008EE0C9D0259A86E02C
:107E300020E33CEF91E0309385002093840096BBD3
:107E4000B09BFECF1D9AA8958150A9F7CC24DD24C4
:107E500088248394B5E0AB2EA1E19A2EF3E0BF2EE7
:107E6000A2D0813461F49FD0082FAFD0023811F036
:107E7000013811F484E001C083E08DD089C08234E0
:107E800011F484E103C0853419F485E0A6D080C0E4
:107E9000853579F488D0E82EFF2485D0082F10E0AE
:107EA000102F00270E291F29000F111F8ED06801E7
:107EB0006FC0863521F484E090D080E0DECF843638
:107EC00009F040C070D06FD0082F6DD080E0C81688
:107ED00080E7D80618F4F601B7BEE895C0E0D1E017
:107EE00062D089930C17E1F7F0E0CF16F0E7DF06D8
:107EF00018F0F601B7BEE89568D007B600FCFDCFD4
:107F0000A601A0E0B1E02C9130E011968C91119780
:107F100090E0982F8827822B932B1296FA010C0160
:107F200087BEE89511244E5F5F4FF1E0A038BF0790
:107F300051F7F601A7BEE89507B600FCFDCF97BE46
:107F4000E89526C08437B1F42ED02DD0F82E2BD052
:107F50003CD0F601EF2C8F010F5F1F4F84911BD097
:107F6000EA94F801C1F70894C11CD11CFA94CF0C13
:107F7000D11C0EC0853739F428D08EE10CD085E9AC
:107F80000AD08FE07ACF813511F488E018D01DD067
:107F900080E101D065CF982F8091C00085FFFCCF94
:107FA0009093C60008958091C00087FFFCCF809118
:107FB000C00084FD01C0A8958091C6000895E0E648
:107FC000F0E098E1908380830895EDDF803219F02E
:107FD00088E0F5DFFFCF84E1DECF1F93182FE3DFCA
:107FE0001150E9F7F2DF1F91089580E0E8DFEE27F6
:047FF000FF270994CA
:027FFE00040479
:00000001FF
